{
	"_format": "hh-sol-artifact-1",
	"contractName": "ChainBattles",
	"sourceName": "contracts/ChainBattles.sol",
	"abi": [
		{
			"inputs": [],
			"stateMutability": "nonpayable",
			"type": "constructor"
		},
		{
			"anonymous": false,
			"inputs": [
				{
					"indexed": true,
					"internalType": "address",
					"name": "owner",
					"type": "address"
				},
				{
					"indexed": true,
					"internalType": "address",
					"name": "approved",
					"type": "address"
				},
				{
					"indexed": true,
					"internalType": "uint256",
					"name": "tokenId",
					"type": "uint256"
				}
			],
			"name": "Approval",
			"type": "event"
		},
		{
			"anonymous": false,
			"inputs": [
				{
					"indexed": true,
					"internalType": "address",
					"name": "owner",
					"type": "address"
				},
				{
					"indexed": true,
					"internalType": "address",
					"name": "operator",
					"type": "address"
				},
				{
					"indexed": false,
					"internalType": "bool",
					"name": "approved",
					"type": "bool"
				}
			],
			"name": "ApprovalForAll",
			"type": "event"
		},
		{
			"anonymous": false,
			"inputs": [
				{
					"indexed": true,
					"internalType": "uint256",
					"name": "attackerTokenId",
					"type": "uint256"
				},
				{
					"indexed": true,
					"internalType": "uint256",
					"name": "victimTokenId",
					"type": "uint256"
				},
				{
					"indexed": false,
					"internalType": "uint256",
					"name": "damage",
					"type": "uint256"
				}
			],
			"name": "Attacked",
			"type": "event"
		},
		{
			"anonymous": false,
			"inputs": [
				{
					"indexed": false,
					"internalType": "uint256",
					"name": "_fromTokenId",
					"type": "uint256"
				},
				{
					"indexed": false,
					"internalType": "uint256",
					"name": "_toTokenId",
					"type": "uint256"
				}
			],
			"name": "BatchMetadataUpdate",
			"type": "event"
		},
		{
			"anonymous": false,
			"inputs": [
				{
					"indexed": true,
					"internalType": "uint256",
					"name": "tokenId",
					"type": "uint256"
				}
			],
			"name": "Burned",
			"type": "event"
		},
		{
			"anonymous": false,
			"inputs": [
				{
					"indexed": false,
					"internalType": "uint256",
					"name": "_tokenId",
					"type": "uint256"
				}
			],
			"name": "MetadataUpdate",
			"type": "event"
		},
		{
			"anonymous": false,
			"inputs": [
				{
					"indexed": true,
					"internalType": "address",
					"name": "owner",
					"type": "address"
				},
				{
					"indexed": true,
					"internalType": "uint256",
					"name": "tokenId",
					"type": "uint256"
				}
			],
			"name": "Minted",
			"type": "event"
		},
		{
			"anonymous": false,
			"inputs": [
				{
					"indexed": true,
					"internalType": "uint256",
					"name": "tokenId",
					"type": "uint256"
				},
				{
					"indexed": false,
					"internalType": "uint256",
					"name": "newLevel",
					"type": "uint256"
				}
			],
			"name": "Trained",
			"type": "event"
		},
		{
			"anonymous": false,
			"inputs": [
				{
					"indexed": true,
					"internalType": "address",
					"name": "from",
					"type": "address"
				},
				{
					"indexed": true,
					"internalType": "address",
					"name": "to",
					"type": "address"
				},
				{
					"indexed": true,
					"internalType": "uint256",
					"name": "tokenId",
					"type": "uint256"
				}
			],
			"name": "Transfer",
			"type": "event"
		},
		{
			"inputs": [
				{
					"internalType": "address",
					"name": "to",
					"type": "address"
				},
				{
					"internalType": "uint256",
					"name": "tokenId",
					"type": "uint256"
				}
			],
			"name": "approve",
			"outputs": [],
			"stateMutability": "nonpayable",
			"type": "function"
		},
		{
			"inputs": [
				{
					"internalType": "uint256",
					"name": "tokenId1",
					"type": "uint256"
				},
				{
					"internalType": "uint256",
					"name": "tokenId2",
					"type": "uint256"
				}
			],
			"name": "attack",
			"outputs": [],
			"stateMutability": "nonpayable",
			"type": "function"
		},
		{
			"inputs": [
				{
					"internalType": "address",
					"name": "owner",
					"type": "address"
				}
			],
			"name": "balanceOf",
			"outputs": [
				{
					"internalType": "uint256",
					"name": "",
					"type": "uint256"
				}
			],
			"stateMutability": "view",
			"type": "function"
		},
		{
			"inputs": [
				{
					"internalType": "uint256",
					"name": "",
					"type": "uint256"
				}
			],
			"name": "characterStats",
			"outputs": [
				{
					"internalType": "uint256",
					"name": "id",
					"type": "uint256"
				},
				{
					"internalType": "uint256",
					"name": "level",
					"type": "uint256"
				},
				{
					"internalType": "uint256",
					"name": "speed",
					"type": "uint256"
				},
				{
					"internalType": "uint256",
					"name": "strength",
					"type": "uint256"
				},
				{
					"internalType": "uint256",
					"name": "life",
					"type": "uint256"
				},
				{
					"internalType": "string",
					"name": "class",
					"type": "string"
				},
				{
					"internalType": "address",
					"name": "owner",
					"type": "address"
				}
			],
			"stateMutability": "view",
			"type": "function"
		},
		{
			"inputs": [
				{
					"internalType": "uint256",
					"name": "tokenId",
					"type": "uint256"
				}
			],
			"name": "generateCharacter",
			"outputs": [
				{
					"internalType": "string",
					"name": "",
					"type": "string"
				}
			],
			"stateMutability": "nonpayable",
			"type": "function"
		},
		{
			"inputs": [
				{
					"internalType": "uint256",
					"name": "tokenId",
					"type": "uint256"
				}
			],
			"name": "getApproved",
			"outputs": [
				{
					"internalType": "address",
					"name": "",
					"type": "address"
				}
			],
			"stateMutability": "view",
			"type": "function"
		},
		{
			"inputs": [],
			"name": "getAttackValue",
			"outputs": [
				{
					"internalType": "uint256",
					"name": "",
					"type": "uint256"
				}
			],
			"stateMutability": "view",
			"type": "function"
		},
		{
			"inputs": [
				{
					"internalType": "uint256",
					"name": "index",
					"type": "uint256"
				}
			],
			"name": "getCharClass",
			"outputs": [
				{
					"internalType": "string",
					"name": "",
					"type": "string"
				}
			],
			"stateMutability": "pure",
			"type": "function"
		},
		{
			"inputs": [
				{
					"internalType": "uint256",
					"name": "tokenId",
					"type": "uint256"
				}
			],
			"name": "getCharacterStats",
			"outputs": [
				{
					"components": [
						{
							"internalType": "uint256",
							"name": "id",
							"type": "uint256"
						},
						{
							"internalType": "uint256",
							"name": "level",
							"type": "uint256"
						},
						{
							"internalType": "uint256",
							"name": "speed",
							"type": "uint256"
						},
						{
							"internalType": "uint256",
							"name": "strength",
							"type": "uint256"
						},
						{
							"internalType": "uint256",
							"name": "life",
							"type": "uint256"
						},
						{
							"internalType": "string",
							"name": "class",
							"type": "string"
						},
						{
							"internalType": "address",
							"name": "owner",
							"type": "address"
						}
					],
					"internalType": "struct ChainBattles.Character",
					"name": "",
					"type": "tuple"
				}
			],
			"stateMutability": "view",
			"type": "function"
		},
		{
			"inputs": [
				{
					"internalType": "uint256",
					"name": "tokenId",
					"type": "uint256"
				}
			],
			"name": "getLevels",
			"outputs": [
				{
					"internalType": "string",
					"name": "",
					"type": "string"
				}
			],
			"stateMutability": "view",
			"type": "function"
		},
		{
			"inputs": [
				{
					"internalType": "uint256",
					"name": "tokenId",
					"type": "uint256"
				},
				{
					"internalType": "address",
					"name": "_owner",
					"type": "address"
				}
			],
			"name": "getTokenURI",
			"outputs": [
				{
					"internalType": "string",
					"name": "",
					"type": "string"
				}
			],
			"stateMutability": "nonpayable",
			"type": "function"
		},
		{
			"inputs": [
				{
					"internalType": "address",
					"name": "owner",
					"type": "address"
				},
				{
					"internalType": "address",
					"name": "operator",
					"type": "address"
				}
			],
			"name": "isApprovedForAll",
			"outputs": [
				{
					"internalType": "bool",
					"name": "",
					"type": "bool"
				}
			],
			"stateMutability": "view",
			"type": "function"
		},
		{
			"inputs": [],
			"name": "mint",
			"outputs": [],
			"stateMutability": "nonpayable",
			"type": "function"
		},
		{
			"inputs": [],
			"name": "name",
			"outputs": [
				{
					"internalType": "string",
					"name": "",
					"type": "string"
				}
			],
			"stateMutability": "view",
			"type": "function"
		},
		{
			"inputs": [
				{
					"internalType": "uint256",
					"name": "tokenId",
					"type": "uint256"
				}
			],
			"name": "ownerOf",
			"outputs": [
				{
					"internalType": "address",
					"name": "",
					"type": "address"
				}
			],
			"stateMutability": "view",
			"type": "function"
		},
		{
			"inputs": [
				{
					"internalType": "uint256",
					"name": "number",
					"type": "uint256"
				}
			],
			"name": "random",
			"outputs": [
				{
					"internalType": "uint256",
					"name": "",
					"type": "uint256"
				}
			],
			"stateMutability": "view",
			"type": "function"
		},
		{
			"inputs": [
				{
					"internalType": "uint256[2]",
					"name": "_myArray",
					"type": "uint256[2]"
				}
			],
			"name": "randomArray",
			"outputs": [
				{
					"internalType": "uint256[2]",
					"name": "",
					"type": "uint256[2]"
				}
			],
			"stateMutability": "view",
			"type": "function"
		},
		{
			"inputs": [
				{
					"internalType": "address",
					"name": "from",
					"type": "address"
				},
				{
					"internalType": "address",
					"name": "to",
					"type": "address"
				},
				{
					"internalType": "uint256",
					"name": "tokenId",
					"type": "uint256"
				}
			],
			"name": "safeTransferFrom",
			"outputs": [],
			"stateMutability": "nonpayable",
			"type": "function"
		},
		{
			"inputs": [
				{
					"internalType": "address",
					"name": "from",
					"type": "address"
				},
				{
					"internalType": "address",
					"name": "to",
					"type": "address"
				},
				{
					"internalType": "uint256",
					"name": "tokenId",
					"type": "uint256"
				},
				{
					"internalType": "bytes",
					"name": "data",
					"type": "bytes"
				}
			],
			"name": "safeTransferFrom",
			"outputs": [],
			"stateMutability": "nonpayable",
			"type": "function"
		},
		{
			"inputs": [
				{
					"internalType": "address",
					"name": "operator",
					"type": "address"
				},
				{
					"internalType": "bool",
					"name": "approved",
					"type": "bool"
				}
			],
			"name": "setApprovalForAll",
			"outputs": [],
			"stateMutability": "nonpayable",
			"type": "function"
		},
		{
			"inputs": [
				{
					"internalType": "bytes4",
					"name": "interfaceId",
					"type": "bytes4"
				}
			],
			"name": "supportsInterface",
			"outputs": [
				{
					"internalType": "bool",
					"name": "",
					"type": "bool"
				}
			],
			"stateMutability": "view",
			"type": "function"
		},
		{
			"inputs": [],
			"name": "symbol",
			"outputs": [
				{
					"internalType": "string",
					"name": "",
					"type": "string"
				}
			],
			"stateMutability": "view",
			"type": "function"
		},
		{
			"inputs": [
				{
					"internalType": "uint256",
					"name": "",
					"type": "uint256"
				}
			],
			"name": "tokenIdToLevels",
			"outputs": [
				{
					"internalType": "uint256",
					"name": "",
					"type": "uint256"
				}
			],
			"stateMutability": "view",
			"type": "function"
		},
		{
			"inputs": [
				{
					"internalType": "uint256",
					"name": "tokenId",
					"type": "uint256"
				}
			],
			"name": "tokenURI",
			"outputs": [
				{
					"internalType": "string",
					"name": "",
					"type": "string"
				}
			],
			"stateMutability": "view",
			"type": "function"
		},
		{
			"inputs": [
				{
					"internalType": "uint256",
					"name": "tokenId",
					"type": "uint256"
				}
			],
			"name": "train",
			"outputs": [],
			"stateMutability": "nonpayable",
			"type": "function"
		},
		{
			"inputs": [
				{
					"internalType": "address",
					"name": "from",
					"type": "address"
				},
				{
					"internalType": "address",
					"name": "to",
					"type": "address"
				},
				{
					"internalType": "uint256",
					"name": "tokenId",
					"type": "uint256"
				}
			],
			"name": "transferFrom",
			"outputs": [],
			"stateMutability": "nonpayable",
			"type": "function"
		}
	],
	"bytecode": "0x60806040523480156200001157600080fd5b506040518060400160405280600d81526020017f436861696e20426174746c6573000000000000000000000000000000000000008152506040518060400160405280600581526020017f4342544c53000000000000000000000000000000000000000000000000000000815250816000908051906020019062000096929190620000b8565b508060019080519060200190620000af929190620000b8565b505050620001cd565b828054620000c69062000197565b90600052602060002090601f016020900481019282620000ea576000855562000136565b82601f106200010557805160ff191683800117855562000136565b8280016001018555821562000136579182015b828111156200013557825182559160200191906001019062000118565b5b50905062000145919062000149565b5090565b5b80821115620001645760008160009055506001016200014a565b5090565b7f4e487b7100000000000000000000000000000000000000000000000000000000600052602260045260246000fd5b60006002820490506001821680620001b057607f821691505b60208210811415620001c757620001c662000168565b5b50919050565b6153cc80620001dd6000396000f3fe608060405234801561001057600080fd5b506004361061018e5760003560e01c806370a08231116100de578063c6a4342f11610097578063e039c0bd11610071578063e039c0bd146104e5578063e1fa763814610515578063e985e9c514610531578063f43785f9146105615761018e565b8063c6a4342f14610455578063c87b56dd14610485578063dfc3f259146104b55761018e565b806370a082311461038157806386a9fd47146103b157806395d89b41146103cf578063a22cb465146103ed578063b863bd3714610409578063b88d4fde146104395761018e565b80631fb265a11161014b578063368004ed11610125578063368004ed146102e957806342842e0e146103055780636352211e146103215780636fe0c046146103515761018e565b80631fb265a11461026757806323b872dd14610297578063366e6fdb146102b35761018e565b806301ffc9a71461019357806306fdde03146101c3578063081812fc146101e1578063095ea7b3146102115780630daefed51461022d5780631249c58b1461025d575b600080fd5b6101ad60048036038101906101a89190612e3a565b610591565b6040516101ba9190612e82565b60405180910390f35b6101cb6105f2565b6040516101d89190612f36565b60405180910390f35b6101fb60048036038101906101f69190612f8e565b610684565b6040516102089190612ffc565b60405180910390f35b61022b60048036038101906102269190613043565b6106ca565b005b61024760048036038101906102429190612f8e565b6107e2565b6040516102549190612f36565b60405180910390f35b61026561098a565b005b610281600480360381019061027c91906131b9565b610a1f565b60405161028e9190613291565b60405180910390f35b6102b160048036038101906102ac91906132ac565b610ace565b005b6102cd60048036038101906102c89190612f8e565b610b2e565b6040516102e0979695949392919061330e565b60405180910390f35b61030360048036038101906102fe9190612f8e565b610c18565b005b61031f600480360381019061031a91906132ac565b610d7d565b005b61033b60048036038101906103369190612f8e565b610d9d565b6040516103489190612ffc565b60405180910390f35b61036b60048036038101906103669190612f8e565b610e24565b6040516103789190613479565b60405180910390f35b61039b6004803603810190610396919061349b565b610f71565b6040516103a891906134c8565b60405180910390f35b6103b9611029565b6040516103c691906134c8565b60405180910390f35b6103d761103f565b6040516103e49190612f36565b60405180910390f35b6104076004803603810190610402919061350f565b6110d1565b005b610423600480360381019061041e9190612f8e565b6110e7565b60405161043091906134c8565b60405180910390f35b610453600480360381019061044e9190613604565b611129565b005b61046f600480360381019061046a9190612f8e565b61118b565b60405161047c91906134c8565b60405180910390f35b61049f600480360381019061049a9190612f8e565b6111a3565b6040516104ac9190612f36565b60405180910390f35b6104cf60048036038101906104ca9190613687565b6112b6565b6040516104dc9190612f36565b60405180910390f35b6104ff60048036038101906104fa9190612f8e565b6114b4565b60405161050c9190612f36565b60405180910390f35b61052f600480360381019061052a91906136c7565b61164d565b005b61054b60048036038101906105469190613707565b6118ba565b6040516105589190612e82565b60405180910390f35b61057b60048036038101906105769190612f8e565b61194e565b6040516105889190612f36565b60405180910390f35b6000634906490660e01b7bffffffffffffffffffffffffffffffffffffffffffffffffffffffff1916827bffffffffffffffffffffffffffffffffffffffffffffffffffffffff191614806105eb57506105ea8261197c565b5b9050919050565b60606000805461060190613776565b80601f016020809104026020016040519081016040528092919081815260200182805461062d90613776565b801561067a5780601f1061064f5761010080835404028352916020019161067a565b820191906000526020600020905b81548152906001019060200180831161065d57829003601f168201915b5050505050905090565b600061068f82611a5e565b6004600083815260200190815260200160002060009054906101000a900473ffffffffffffffffffffffffffffffffffffffff169050919050565b60006106d582610d9d565b90508073ffffffffffffffffffffffffffffffffffffffff168373ffffffffffffffffffffffffffffffffffffffff161415610746576040517f08c379a000000000000000000000000000000000000000000000000000000000815260040161073d9061381a565b60405180910390fd5b8073ffffffffffffffffffffffffffffffffffffffff16610765611aa9565b73ffffffffffffffffffffffffffffffffffffffff16148061079457506107938161078e611aa9565b6118ba565b5b6107d3576040517f08c379a00000000000000000000000000000000000000000000000000000000081526004016107ca906138ac565b60405180910390fd5b6107dd8383611ab1565b505050565b606060006010600084815260200190815260200160002060010154146108e357600060106000848152602001908152602001600020600001546010600085815260200190815260200160002060050160106000868152602001908152602001600020600101546010600087815260200190815260200160002060020154601060008881526020019081526020016000206003015460106000898152602001908152602001600020600401546040516020016108a296959493929190614144565b60405160208183030381529060405290506108bc81611b6a565b6040516020016108cc919061431f565b604051602081830303815290604052915050610985565b60006108ee83610e24565b600001516108fb84610e24565b60a0015161090885610e24565b6020015161091586610e24565b6040015161092287610e24565b6060015161092f88610e24565b6080015160405160200161094896959493929190614341565b604051602081830303815290604052905061096281611b6a565b604051602001610972919061431f565b6040516020818303038152906040529150505b919050565b6109946007611cce565b60006109a06007611ce4565b90506109ac3382611cf2565b6000600f6000838152602001908152602001600020819055506109d8816109d383336112b6565b611d10565b803373ffffffffffffffffffffffffffffffffffffffff167f30385c845b448a36257a6a1716e6ad2e1bc2cbe333cde1e69fe849ad6511adfe60405160405180910390a350565b610a27612c76565b610a2f612c76565b60005b6002811015610ac4576001848260028110610a5057610a4f61449f565b5b60200201514283604051602001610a689291906144ce565b6040516020818303038152906040528051906020012060001c610a8b9190614529565b610a959190614589565b828260028110610aa857610aa761449f565b5b6020020181815250508080610abc906145df565b915050610a32565b5080915050919050565b610adf610ad9611aa9565b82611dbb565b610b1e576040517f08c379a0000000000000000000000000000000000000000000000000000000008152600401610b159061469a565b60405180910390fd5b610b29838383611e50565b505050565b6010602052806000526040600020600091509050806000015490806001015490806002015490806003015490806004015490806005018054610b6f90613776565b80601f0160208091040260200160405190810160405280929190818152602001828054610b9b90613776565b8015610be85780601f10610bbd57610100808354040283529160200191610be8565b820191906000526020600020905b815481529060010190602001808311610bcb57829003601f168201915b5050505050908060060160009054906101000a900473ffffffffffffffffffffffffffffffffffffffff16905087565b610c218161214a565b610c60576040517f08c379a0000000000000000000000000000000000000000000000000000000008152600401610c5790614706565b60405180910390fd5b3373ffffffffffffffffffffffffffffffffffffffff16610c8082610d9d565b73ffffffffffffffffffffffffffffffffffffffff1614610cd6576040517f08c379a0000000000000000000000000000000000000000000000000000000008152600401610ccd90614798565b60405180910390fd5b600060106000838152602001908152602001600020600101549050600181610cfe9190614589565b6010600084815260200190815260200160002060010181905550610d2b82610d2684336112b6565b611d10565b817fed261a3377e5506c84a07979009cb8f8cc34a0960245d60dc21d61ed1798cc7d6010600085815260200190815260200160002060010154604051610d7191906134c8565b60405180910390a25050565b610d9883838360405180602001604052806000815250611129565b505050565b600080610da98361218b565b9050600073ffffffffffffffffffffffffffffffffffffffff168173ffffffffffffffffffffffffffffffffffffffff161415610e1b576040517f08c379a0000000000000000000000000000000000000000000000000000000008152600401610e1290614804565b60405180910390fd5b80915050919050565b610e2c612c98565b6000601060008481526020019081526020016000206040518060e00160405290816000820154815260200160018201548152602001600282015481526020016003820154815260200160048201548152602001600582018054610e8e90613776565b80601f0160208091040260200160405190810160405280929190818152602001828054610eba90613776565b8015610f075780601f10610edc57610100808354040283529160200191610f07565b820191906000526020600020905b815481529060010190602001808311610eea57829003601f168201915b505050505081526020016006820160009054906101000a900473ffffffffffffffffffffffffffffffffffffffff1673ffffffffffffffffffffffffffffffffffffffff1673ffffffffffffffffffffffffffffffffffffffff1681525050905080915050919050565b60008073ffffffffffffffffffffffffffffffffffffffff168273ffffffffffffffffffffffffffffffffffffffff161415610fe2576040517f08c379a0000000000000000000000000000000000000000000000000000000008152600401610fd990614896565b60405180910390fd5b600360008373ffffffffffffffffffffffffffffffffffffffff1673ffffffffffffffffffffffffffffffffffffffff168152602001908152602001600020549050919050565b60008061103660236110e7565b90508091505090565b60606001805461104e90613776565b80601f016020809104026020016040519081016040528092919081815260200182805461107a90613776565b80156110c75780601f1061109c576101008083540402835291602001916110c7565b820191906000526020600020905b8154815290600101906020018083116110aa57829003601f168201915b5050505050905090565b6110e36110dc611aa9565b83836121c8565b5050565b6000814244336040516020016110ff939291906148fe565b6040516020818303038152906040528051906020012060001c6111229190614529565b9050919050565b61113a611134611aa9565b83611dbb565b611179576040517f08c379a00000000000000000000000000000000000000000000000000000000081526004016111709061469a565b60405180910390fd5b61118584848484612335565b50505050565b600f6020528060005260406000206000915090505481565b60606111ae82611a5e565b60006006600084815260200190815260200160002080546111ce90613776565b80601f01602080910402602001604051908101604052809291908181526020018280546111fa90613776565b80156112475780601f1061121c57610100808354040283529160200191611247565b820191906000526020600020905b81548152906001019060200180831161122a57829003601f168201915b505050505090506000611258612391565b905060008151141561126e5781925050506112b1565b6000825111156112a357808260405160200161128b92919061493b565b604051602081830303815290604052925050506112b1565b6112ac846123a8565b925050505b919050565b606060006010600085815260200190815260200160002060010154141561144d5760006112f86040518060400160405280605581526020016050815250610a1f565b905060008061130f61130a60056110e7565b6114b4565b90506000836000600281106113275761132661449f565b5b602002015190506000846001600281106113445761134361449f565b5b602002015190506000606490506040518060e001604052808a81526020018681526020018481526020018381526020018281526020018581526020018973ffffffffffffffffffffffffffffffffffffffff16815250601060008b8152602001908152602001600020600082015181600001556020820151816001015560408201518160020155606082015181600301556080820151816004015560a08201518160050190805190602001906113fb929190612ceb565b5060c08201518160060160006101000a81548173ffffffffffffffffffffffffffffffffffffffff021916908373ffffffffffffffffffffffffffffffffffffffff1602179055509050505050505050505b600061145884612410565b611461856107e2565b604051602001611472929190614b99565b604051602081830303815290604052905061148c81611b6a565b60405160200161149c9190614c56565b60405160208183030381529060405291505092915050565b606060006040518060a001604052806040518060400160405280600781526020017f57617272696f720000000000000000000000000000000000000000000000000081525081526020016040518060400160405280600481526020017f4d6167650000000000000000000000000000000000000000000000000000000081525081526020016040518060400160405280600681526020017f4865616c6572000000000000000000000000000000000000000000000000000081525081526020016040518060400160405280600681526020017f57697a617264000000000000000000000000000000000000000000000000000081525081526020016040518060400160405280600681526020017f417263686572000000000000000000000000000000000000000000000000000081525081525090506005831061162d576040517f08c379a000000000000000000000000000000000000000000000000000000000815260040161162490614cc4565b60405180910390fd5b8083600581106116405761163f61449f565b5b6020020151915050919050565b6116568261214a565b611695576040517f08c379a000000000000000000000000000000000000000000000000000000000815260040161168c90614d30565b60405180910390fd5b61169e8161214a565b6116dd576040517f08c379a00000000000000000000000000000000000000000000000000000000081526004016116d490614d9c565b60405180910390fd5b3373ffffffffffffffffffffffffffffffffffffffff166116fd83610d9d565b73ffffffffffffffffffffffffffffffffffffffff1614611753576040517f08c379a000000000000000000000000000000000000000000000000000000000815260040161174a90614e08565b60405180910390fd5b600061175d611029565b9050600060106000848152602001908152602001600020600401549050600060106000858152602001908152602001600020600101549050818311156118405760008114156117e1576117af846124e8565b837fd83c63197e8e676d80ab0122beba9a9d20f3828839e9a1d6fe81d242e9cd7e6e60405160405180910390a261183b565b6001816117ee9190614e28565b6010600086815260200190815260200160002060010181905550828260646118169190614589565b6118209190614e28565b60106000868152602001908152602001600020600401819055505b611867565b828261184c9190614e28565b60106000868152602001908152602001600020600401819055505b61187a8461187586336112b6565b611d10565b83857fba2c1e89a773b1234ed614b22747890d7abe2dc00dea2aac7a5bc913d1b3fd10856040516118ab91906134c8565b60405180910390a35050505050565b6000600560008473ffffffffffffffffffffffffffffffffffffffff1673ffffffffffffffffffffffffffffffffffffffff16815260200190815260200160002060008373ffffffffffffffffffffffffffffffffffffffff1673ffffffffffffffffffffffffffffffffffffffff16815260200190815260200160002060009054906101000a900460ff16905092915050565b606060006010600084815260200190815260200160002060010154905061197481612410565b915050919050565b60007f80ac58cd000000000000000000000000000000000000000000000000000000007bffffffffffffffffffffffffffffffffffffffffffffffffffffffff1916827bffffffffffffffffffffffffffffffffffffffffffffffffffffffff19161480611a4757507f5b5e139f000000000000000000000000000000000000000000000000000000007bffffffffffffffffffffffffffffffffffffffffffffffffffffffff1916827bffffffffffffffffffffffffffffffffffffffffffffffffffffffff1916145b80611a575750611a568261253b565b5b9050919050565b611a678161214a565b611aa6576040517f08c379a0000000000000000000000000000000000000000000000000000000008152600401611a9d90614804565b60405180910390fd5b50565b600033905090565b816004600083815260200190815260200160002060006101000a81548173ffffffffffffffffffffffffffffffffffffffff021916908373ffffffffffffffffffffffffffffffffffffffff160217905550808273ffffffffffffffffffffffffffffffffffffffff16611b2483610d9d565b73ffffffffffffffffffffffffffffffffffffffff167f8c5be1e5ebec7d5bd14f71427d1e84f3dd0314c0f7b2291e5b200ac8c7c3b92560405160405180910390a45050565b6060600082511415611b8d57604051806020016040528060008152509050611cc9565b60006040518060600160405280604081526020016153576040913990506000600360028551611bbc9190614589565b611bc69190614e5c565b6004611bd29190614e8d565b67ffffffffffffffff811115611beb57611bea613088565b5b6040519080825280601f01601f191660200182016040528015611c1d5781602001600182028036833780820191505090505b509050600182016020820185865187015b80821015611c89576003820191508151603f8160121c168501518453600184019350603f81600c1c168501518453600184019350603f8160061c168501518453600184019350603f8116850151845360018401935050611c2e565b5050600386510660018114611ca55760028114611cb857611cc0565b603d6001830353603d6002830353611cc0565b603d60018303535b50505080925050505b919050565b6001816000016000828254019250508190555050565b600081600001549050919050565b611d0c8282604051806020016040528060008152506125a5565b5050565b611d198261214a565b611d58576040517f08c379a0000000000000000000000000000000000000000000000000000000008152600401611d4f90614f59565b60405180910390fd5b80600660008481526020019081526020016000209080519060200190611d7f929190612ceb565b507ff8e1a15aba9398e019f0b49df1a4fde98ee17ae345cb5f6b5e2c27f5033e8ce782604051611daf91906134c8565b60405180910390a15050565b600080611dc783610d9d565b90508073ffffffffffffffffffffffffffffffffffffffff168473ffffffffffffffffffffffffffffffffffffffff161480611e095750611e0881856118ba565b5b80611e4757508373ffffffffffffffffffffffffffffffffffffffff16611e2f84610684565b73ffffffffffffffffffffffffffffffffffffffff16145b91505092915050565b8273ffffffffffffffffffffffffffffffffffffffff16611e7082610d9d565b73ffffffffffffffffffffffffffffffffffffffff1614611ec6576040517f08c379a0000000000000000000000000000000000000000000000000000000008152600401611ebd90614feb565b60405180910390fd5b600073ffffffffffffffffffffffffffffffffffffffff168273ffffffffffffffffffffffffffffffffffffffff161415611f36576040517f08c379a0000000000000000000000000000000000000000000000000000000008152600401611f2d9061507d565b60405180910390fd5b611f438383836001612600565b8273ffffffffffffffffffffffffffffffffffffffff16611f6382610d9d565b73ffffffffffffffffffffffffffffffffffffffff1614611fb9576040517f08c379a0000000000000000000000000000000000000000000000000000000008152600401611fb090614feb565b60405180910390fd5b6004600082815260200190815260200160002060006101000a81549073ffffffffffffffffffffffffffffffffffffffff02191690556001600360008573ffffffffffffffffffffffffffffffffffffffff1673ffffffffffffffffffffffffffffffffffffffff168152602001908152602001600020600082825403925050819055506001600360008473ffffffffffffffffffffffffffffffffffffffff1673ffffffffffffffffffffffffffffffffffffffff16815260200190815260200160002060008282540192505081905550816002600083815260200190815260200160002060006101000a81548173ffffffffffffffffffffffffffffffffffffffff021916908373ffffffffffffffffffffffffffffffffffffffff160217905550808273ffffffffffffffffffffffffffffffffffffffff168473ffffffffffffffffffffffffffffffffffffffff167fddf252ad1be2c89b69c2b068fc378daa952ba7f163c4a11628f55a4df523b3ef60405160405180910390a46121458383836001612606565b505050565b60008073ffffffffffffffffffffffffffffffffffffffff1661216c8361218b565b73ffffffffffffffffffffffffffffffffffffffff1614159050919050565b60006002600083815260200190815260200160002060009054906101000a900473ffffffffffffffffffffffffffffffffffffffff169050919050565b8173ffffffffffffffffffffffffffffffffffffffff168373ffffffffffffffffffffffffffffffffffffffff161415612237576040517f08c379a000000000000000000000000000000000000000000000000000000000815260040161222e906150e9565b60405180910390fd5b80600560008573ffffffffffffffffffffffffffffffffffffffff1673ffffffffffffffffffffffffffffffffffffffff16815260200190815260200160002060008473ffffffffffffffffffffffffffffffffffffffff1673ffffffffffffffffffffffffffffffffffffffff16815260200190815260200160002060006101000a81548160ff0219169083151502179055508173ffffffffffffffffffffffffffffffffffffffff168373ffffffffffffffffffffffffffffffffffffffff167f17307eab39ab6107e8899845ad3d59bd9653f200f220920489ca2b5937696c31836040516123289190612e82565b60405180910390a3505050565b612340848484611e50565b61234c8484848461260c565b61238b576040517f08c379a00000000000000000000000000000000000000000000000000000000081526004016123829061517b565b60405180910390fd5b50505050565b606060405180602001604052806000815250905090565b60606123b382611a5e565b60006123bd612391565b905060008151116123dd5760405180602001604052806000815250612408565b806123e784612410565b6040516020016123f892919061493b565b6040516020818303038152906040525b915050919050565b60606000600161241f84612794565b01905060008167ffffffffffffffff81111561243e5761243d613088565b5b6040519080825280601f01601f1916602001820160405280156124705781602001600182028036833780820191505090505b509050600082602001820190505b6001156124dd578080600190039150507f3031323334353637383961626364656600000000000000000000000000000000600a86061a8153600a85816124c7576124c66144fa565b5b04945060008514156124d8576124dd565b61247e565b819350505050919050565b6124f1816128e7565b600060066000838152602001908152602001600020805461251190613776565b905014612538576006600082815260200190815260200160002060006125379190612d71565b5b50565b60007f01ffc9a7000000000000000000000000000000000000000000000000000000007bffffffffffffffffffffffffffffffffffffffffffffffffffffffff1916827bffffffffffffffffffffffffffffffffffffffffffffffffffffffff1916149050919050565b6125af8383612a35565b6125bc600084848461260c565b6125fb576040517f08c379a00000000000000000000000000000000000000000000000000000000081526004016125f29061517b565b60405180910390fd5b505050565b50505050565b50505050565b600061262d8473ffffffffffffffffffffffffffffffffffffffff16612c53565b15612787578373ffffffffffffffffffffffffffffffffffffffff1663150b7a02612656611aa9565b8786866040518563ffffffff1660e01b815260040161267894939291906151f0565b6020604051808303816000875af19250505080156126b457506040513d601f19601f820116820180604052508101906126b19190615251565b60015b612737573d80600081146126e4576040519150601f19603f3d011682016040523d82523d6000602084013e6126e9565b606091505b5060008151141561272f576040517f08c379a00000000000000000000000000000000000000000000000000000000081526004016127269061517b565b60405180910390fd5b805181602001fd5b63150b7a0260e01b7bffffffffffffffffffffffffffffffffffffffffffffffffffffffff1916817bffffffffffffffffffffffffffffffffffffffffffffffffffffffff19161491505061278c565b600190505b949350505050565b600080600090507a184f03e93ff9f4daa797ed6e38ed64bf6a1f01000000000000000083106127f2577a184f03e93ff9f4daa797ed6e38ed64bf6a1f01000000000000000083816127e8576127e76144fa565b5b0492506040810190505b6d04ee2d6d415b85acef8100000000831061282f576d04ee2d6d415b85acef81000000008381612825576128246144fa565b5b0492506020810190505b662386f26fc10000831061285e57662386f26fc100008381612854576128536144fa565b5b0492506010810190505b6305f5e1008310612887576305f5e100838161287d5761287c6144fa565b5b0492506008810190505b61271083106128ac5761271083816128a2576128a16144fa565b5b0492506004810190505b606483106128cf57606483816128c5576128c46144fa565b5b0492506002810190505b600a83106128de576001810190505b80915050919050565b60006128f282610d9d565b9050612902816000846001612600565b61290b82610d9d565b90506004600083815260200190815260200160002060006101000a81549073ffffffffffffffffffffffffffffffffffffffff02191690556001600360008373ffffffffffffffffffffffffffffffffffffffff1673ffffffffffffffffffffffffffffffffffffffff168152602001908152602001600020600082825403925050819055506002600083815260200190815260200160002060006101000a81549073ffffffffffffffffffffffffffffffffffffffff021916905581600073ffffffffffffffffffffffffffffffffffffffff168273ffffffffffffffffffffffffffffffffffffffff167fddf252ad1be2c89b69c2b068fc378daa952ba7f163c4a11628f55a4df523b3ef60405160405180910390a4612a31816000846001612606565b5050565b600073ffffffffffffffffffffffffffffffffffffffff168273ffffffffffffffffffffffffffffffffffffffff161415612aa5576040517f08c379a0000000000000000000000000000000000000000000000000000000008152600401612a9c906152ca565b60405180910390fd5b612aae8161214a565b15612aee576040517f08c379a0000000000000000000000000000000000000000000000000000000008152600401612ae590615336565b60405180910390fd5b612afc600083836001612600565b612b058161214a565b15612b45576040517f08c379a0000000000000000000000000000000000000000000000000000000008152600401612b3c90615336565b60405180910390fd5b6001600360008473ffffffffffffffffffffffffffffffffffffffff1673ffffffffffffffffffffffffffffffffffffffff16815260200190815260200160002060008282540192505081905550816002600083815260200190815260200160002060006101000a81548173ffffffffffffffffffffffffffffffffffffffff021916908373ffffffffffffffffffffffffffffffffffffffff160217905550808273ffffffffffffffffffffffffffffffffffffffff16600073ffffffffffffffffffffffffffffffffffffffff167fddf252ad1be2c89b69c2b068fc378daa952ba7f163c4a11628f55a4df523b3ef60405160405180910390a4612c4f600083836001612606565b5050565b6000808273ffffffffffffffffffffffffffffffffffffffff163b119050919050565b6040518060400160405280600290602082028036833780820191505090505090565b6040518060e00160405280600081526020016000815260200160008152602001600081526020016000815260200160608152602001600073ffffffffffffffffffffffffffffffffffffffff1681525090565b828054612cf790613776565b90600052602060002090601f016020900481019282612d195760008555612d60565b82601f10612d3257805160ff1916838001178555612d60565b82800160010185558215612d60579182015b82811115612d5f578251825591602001919060010190612d44565b5b509050612d6d9190612db1565b5090565b508054612d7d90613776565b6000825580601f10612d8f5750612dae565b601f016020900490600052602060002090810190612dad9190612db1565b5b50565b5b80821115612dca576000816000905550600101612db2565b5090565b6000604051905090565b600080fd5b600080fd5b60007fffffffff0000000000000000000000000000000000000000000000000000000082169050919050565b612e1781612de2565b8114612e2257600080fd5b50565b600081359050612e3481612e0e565b92915050565b600060208284031215612e5057612e4f612dd8565b5b6000612e5e84828501612e25565b91505092915050565b60008115159050919050565b612e7c81612e67565b82525050565b6000602082019050612e976000830184612e73565b92915050565b600081519050919050565b600082825260208201905092915050565b60005b83811015612ed7578082015181840152602081019050612ebc565b83811115612ee6576000848401525b50505050565b6000601f19601f8301169050919050565b6000612f0882612e9d565b612f128185612ea8565b9350612f22818560208601612eb9565b612f2b81612eec565b840191505092915050565b60006020820190508181036000830152612f508184612efd565b905092915050565b6000819050919050565b612f6b81612f58565b8114612f7657600080fd5b50565b600081359050612f8881612f62565b92915050565b600060208284031215612fa457612fa3612dd8565b5b6000612fb284828501612f79565b91505092915050565b600073ffffffffffffffffffffffffffffffffffffffff82169050919050565b6000612fe682612fbb565b9050919050565b612ff681612fdb565b82525050565b60006020820190506130116000830184612fed565b92915050565b61302081612fdb565b811461302b57600080fd5b50565b60008135905061303d81613017565b92915050565b6000806040838503121561305a57613059612dd8565b5b60006130688582860161302e565b925050602061307985828601612f79565b9150509250929050565b600080fd5b7f4e487b7100000000000000000000000000000000000000000000000000000000600052604160045260246000fd5b6130c082612eec565b810181811067ffffffffffffffff821117156130df576130de613088565b5b80604052505050565b60006130f2612dce565b90506130fe82826130b7565b919050565b600067ffffffffffffffff82111561311e5761311d613088565b5b602082029050919050565b600080fd5b600061314161313c84613103565b6130e8565b9050806020840283018581111561315b5761315a613129565b5b835b8181101561318457806131708882612f79565b84526020840193505060208101905061315d565b5050509392505050565b600082601f8301126131a3576131a2613083565b5b60026131b084828561312e565b91505092915050565b6000604082840312156131cf576131ce612dd8565b5b60006131dd8482850161318e565b91505092915050565b600060029050919050565b600081905092915050565b6000819050919050565b61320f81612f58565b82525050565b60006132218383613206565b60208301905092915050565b6000602082019050919050565b613243816131e6565b61324d81846131f1565b9250613258826131fc565b8060005b838110156132895781516132708782613215565b965061327b8361322d565b92505060018101905061325c565b505050505050565b60006040820190506132a6600083018461323a565b92915050565b6000806000606084860312156132c5576132c4612dd8565b5b60006132d38682870161302e565b93505060206132e48682870161302e565b92505060406132f586828701612f79565b9150509250925092565b61330881612f58565b82525050565b600060e082019050613323600083018a6132ff565b61333060208301896132ff565b61333d60408301886132ff565b61334a60608301876132ff565b61335760808301866132ff565b81810360a08301526133698185612efd565b905061337860c0830184612fed565b98975050505050505050565b600082825260208201905092915050565b60006133a082612e9d565b6133aa8185613384565b93506133ba818560208601612eb9565b6133c381612eec565b840191505092915050565b6133d781612fdb565b82525050565b600060e0830160008301516133f56000860182613206565b5060208301516134086020860182613206565b50604083015161341b6040860182613206565b50606083015161342e6060860182613206565b5060808301516134416080860182613206565b5060a083015184820360a08601526134598282613395565b91505060c083015161346e60c08601826133ce565b508091505092915050565b6000602082019050818103600083015261349381846133dd565b905092915050565b6000602082840312156134b1576134b0612dd8565b5b60006134bf8482850161302e565b91505092915050565b60006020820190506134dd60008301846132ff565b92915050565b6134ec81612e67565b81146134f757600080fd5b50565b600081359050613509816134e3565b92915050565b6000806040838503121561352657613525612dd8565b5b60006135348582860161302e565b9250506020613545858286016134fa565b9150509250929050565b600080fd5b600067ffffffffffffffff82111561356f5761356e613088565b5b61357882612eec565b9050602081019050919050565b82818337600083830152505050565b60006135a76135a284613554565b6130e8565b9050828152602081018484840111156135c3576135c261354f565b5b6135ce848285613585565b509392505050565b600082601f8301126135eb576135ea613083565b5b81356135fb848260208601613594565b91505092915050565b6000806000806080858703121561361e5761361d612dd8565b5b600061362c8782880161302e565b945050602061363d8782880161302e565b935050604061364e87828801612f79565b925050606085013567ffffffffffffffff81111561366f5761366e612ddd565b5b61367b878288016135d6565b91505092959194509250565b6000806040838503121561369e5761369d612dd8565b5b60006136ac85828601612f79565b92505060206136bd8582860161302e565b9150509250929050565b600080604083850312156136de576136dd612dd8565b5b60006136ec85828601612f79565b92505060206136fd85828601612f79565b9150509250929050565b6000806040838503121561371e5761371d612dd8565b5b600061372c8582860161302e565b925050602061373d8582860161302e565b9150509250929050565b7f4e487b7100000000000000000000000000000000000000000000000000000000600052602260045260246000fd5b6000600282049050600182168061378e57607f821691505b602082108114156137a2576137a1613747565b5b50919050565b7f4552433732313a20617070726f76616c20746f2063757272656e74206f776e6560008201527f7200000000000000000000000000000000000000000000000000000000000000602082015250565b6000613804602183612ea8565b915061380f826137a8565b604082019050919050565b60006020820190508181036000830152613833816137f7565b9050919050565b7f4552433732313a20617070726f76652063616c6c6572206973206e6f7420746f60008201527f6b656e206f776e6572206f7220617070726f76656420666f7220616c6c000000602082015250565b6000613896603d83612ea8565b91506138a18261383a565b604082019050919050565b600060208201905081810360008301526138c581613889565b9050919050565b600081905092915050565b7f3c73766720786d6c6e733d22687474703a2f2f7777772e77332e6f72672f323060008201527f30302f73766722207072657365727665417370656374526174696f3d22784d6960208201527f6e594d696e206d656574222076696577426f783d22302030203335302033353060408201527f223e000000000000000000000000000000000000000000000000000000000000606082015250565b600061397f6062836138cc565b915061398a826138d7565b606282019050919050565b7f3c7374796c653e2e62617365207b2066696c6c3a2077686974653b20666f6e7460008201527f2d66616d696c793a2073657269663b20666f6e742d73697a653a20313470783b60208201527f207d3c2f7374796c653e00000000000000000000000000000000000000000000604082015250565b6000613a17604a836138cc565b9150613a2282613995565b604a82019050919050565b7f3c726563742077696474683d223130302522206865696768743d22313030252260008201527f2066696c6c3d22626c61636b22202f3e00000000000000000000000000000000602082015250565b6000613a896030836138cc565b9150613a9482613a2d565b603082019050919050565b7f3c7465787420783d223530252220793d223230252220636c6173733d2262617360008201527f652220646f6d696e616e742d626173656c696e653d226d6964646c652220746560208201527f78742d616e63686f723d226d6964646c65223e00000000000000000000000000604082015250565b6000613b216053836138cc565b9150613b2c82613a9f565b605382019050919050565b7f49443a2000000000000000000000000000000000000000000000000000000000600082015250565b6000613b6d6004836138cc565b9150613b7882613b37565b600482019050919050565b6000819050919050565b613b9e613b9982612f58565b613b83565b82525050565b7f3c2f746578743e00000000000000000000000000000000000000000000000000600082015250565b6000613bda6007836138cc565b9150613be582613ba4565b600782019050919050565b7f3c7465787420783d223530252220793d223330252220636c6173733d2262617360008201527f652220646f6d696e616e742d626173656c696e653d226d6964646c652220746560208201527f78742d616e63686f723d226d6964646c65223e00000000000000000000000000604082015250565b6000613c726053836138cc565b9150613c7d82613bf0565b605382019050919050565b7f436c6173733a2000000000000000000000000000000000000000000000000000600082015250565b6000613cbe6007836138cc565b9150613cc982613c88565b600782019050919050565b60008190508160005260206000209050919050565b60008154613cf681613776565b613d0081866138cc565b94506001821660008114613d1b5760018114613d2c57613d5f565b60ff19831686528186019350613d5f565b613d3585613cd4565b60005b83811015613d5757815481890152600182019150602081019050613d38565b838801955050505b50505092915050565b7f3c7465787420783d223530252220793d223430252220636c6173733d2262617360008201527f652220646f6d696e616e742d626173656c696e653d226d6964646c652220746560208201527f78742d616e63686f723d226d6964646c65223e00000000000000000000000000604082015250565b6000613dea6053836138cc565b9150613df582613d68565b605382019050919050565b7f4c6576656c733a20000000000000000000000000000000000000000000000000600082015250565b6000613e366008836138cc565b9150613e4182613e00565b600882019050919050565b7f3c7465787420783d223530252220793d223530252220636c6173733d2262617360008201527f652220646f6d696e616e742d626173656c696e653d226d6964646c652220746560208201527f78742d616e63686f723d226d6964646c65223e00000000000000000000000000604082015250565b6000613ece6053836138cc565b9150613ed982613e4c565b605382019050919050565b7f53706565643a2000000000000000000000000000000000000000000000000000600082015250565b6000613f1a6007836138cc565b9150613f2582613ee4565b600782019050919050565b7f3c7465787420783d223530252220793d223630252220636c6173733d2262617360008201527f652220646f6d696e616e742d626173656c696e653d226d6964646c652220746560208201527f78742d616e63686f723d226d6964646c65223e00000000000000000000000000604082015250565b6000613fb26053836138cc565b9150613fbd82613f30565b605382019050919050565b7f537472656e6774683a2000000000000000000000000000000000000000000000600082015250565b6000613ffe600a836138cc565b915061400982613fc8565b600a82019050919050565b7f3c7465787420783d223530252220793d223730252220636c6173733d2262617360008201527f652220646f6d696e616e742d626173656c696e653d226d6964646c652220746560208201527f78742d616e63686f723d226d6964646c65223e00000000000000000000000000604082015250565b60006140966053836138cc565b91506140a182614014565b605382019050919050565b7f4c6966653a200000000000000000000000000000000000000000000000000000600082015250565b60006140e26006836138cc565b91506140ed826140ac565b600682019050919050565b7f3c2f7376673e0000000000000000000000000000000000000000000000000000600082015250565b600061412e6006836138cc565b9150614139826140f8565b600682019050919050565b600061414f82613972565b915061415a82613a0a565b915061416582613a7c565b915061417082613b14565b915061417b82613b60565b91506141878289613b8d565b60208201915061419682613bcd565b91506141a182613c65565b91506141ac82613cb1565b91506141b88288613ce9565b91506141c382613bcd565b91506141ce82613ddd565b91506141d982613e29565b91506141e58287613b8d565b6020820191506141f482613bcd565b91506141ff82613ec1565b915061420a82613f0d565b91506142168286613b8d565b60208201915061422582613bcd565b915061423082613fa5565b915061423b82613ff1565b91506142478285613b8d565b60208201915061425682613bcd565b915061426182614089565b915061426c826140d5565b91506142788284613b8d565b60208201915061428782613bcd565b915061429282614121565b9150819050979650505050505050565b7f646174613a696d6167652f7376672b786d6c3b6261736536342c000000000000600082015250565b60006142d8601a836138cc565b91506142e3826142a2565b601a82019050919050565b60006142f982612e9d565b61430381856138cc565b9350614313818560208601612eb9565b80840191505092915050565b600061432a826142cb565b915061433682846142ee565b915081905092915050565b600061434c82613972565b915061435782613a0a565b915061436282613a7c565b915061436d82613b14565b915061437882613b60565b91506143848289613b8d565b60208201915061439382613bcd565b915061439e82613c65565b91506143a982613cb1565b91506143b582886142ee565b91506143c082613bcd565b91506143cb82613ddd565b91506143d682613e29565b91506143e28287613b8d565b6020820191506143f182613bcd565b91506143fc82613ec1565b915061440782613f0d565b91506144138286613b8d565b60208201915061442282613bcd565b915061442d82613fa5565b915061443882613ff1565b91506144448285613b8d565b60208201915061445382613bcd565b915061445e82614089565b9150614469826140d5565b91506144758284613b8d565b60208201915061448482613bcd565b915061448f82614121565b9150819050979650505050505050565b7f4e487b7100000000000000000000000000000000000000000000000000000000600052603260045260246000fd5b60006144da8285613b8d565b6020820191506144ea8284613b8d565b6020820191508190509392505050565b7f4e487b7100000000000000000000000000000000000000000000000000000000600052601260045260246000fd5b600061453482612f58565b915061453f83612f58565b92508261454f5761454e6144fa565b5b828206905092915050565b7f4e487b7100000000000000000000000000000000000000000000000000000000600052601160045260246000fd5b600061459482612f58565b915061459f83612f58565b9250827fffffffffffffffffffffffffffffffffffffffffffffffffffffffffffffffff038211156145d4576145d361455a565b5b828201905092915050565b60006145ea82612f58565b91507fffffffffffffffffffffffffffffffffffffffffffffffffffffffffffffffff82141561461d5761461c61455a565b5b600182019050919050565b7f4552433732313a2063616c6c6572206973206e6f7420746f6b656e206f776e6560008201527f72206f7220617070726f76656400000000000000000000000000000000000000602082015250565b6000614684602d83612ea8565b915061468f82614628565b604082019050919050565b600060208201905081810360008301526146b381614677565b9050919050565b7f506c656173652075736520616e206578697374696e6720746f6b656e00000000600082015250565b60006146f0601c83612ea8565b91506146fb826146ba565b602082019050919050565b6000602082019050818103600083015261471f816146e3565b9050919050565b7f596f75206d757374206f776e207468697320746f6b656e20746f20747261696e60008201527f2069740000000000000000000000000000000000000000000000000000000000602082015250565b6000614782602383612ea8565b915061478d82614726565b604082019050919050565b600060208201905081810360008301526147b181614775565b9050919050565b7f4552433732313a20696e76616c696420746f6b656e2049440000000000000000600082015250565b60006147ee601883612ea8565b91506147f9826147b8565b602082019050919050565b6000602082019050818103600083015261481d816147e1565b9050919050565b7f4552433732313a2061646472657373207a65726f206973206e6f74206120766160008201527f6c6964206f776e65720000000000000000000000000000000000000000000000602082015250565b6000614880602983612ea8565b915061488b82614824565b604082019050919050565b600060208201905081810360008301526148af81614873565b9050919050565b60008160601b9050919050565b60006148ce826148b6565b9050919050565b60006148e0826148c3565b9050919050565b6148f86148f382612fdb565b6148d5565b82525050565b600061490a8286613b8d565b60208201915061491a8285613b8d565b60208201915061492a82846148e7565b601482019150819050949350505050565b600061494782856142ee565b915061495382846142ee565b91508190509392505050565b7f7b00000000000000000000000000000000000000000000000000000000000000600082015250565b60006149956001836138cc565b91506149a08261495f565b600182019050919050565b7f226e616d65223a2022436861696e20426174746c657320230000000000000000600082015250565b60006149e16018836138cc565b91506149ec826149ab565b601882019050919050565b7f222c000000000000000000000000000000000000000000000000000000000000600082015250565b6000614a2d6002836138cc565b9150614a38826149f7565b600282019050919050565b7f226465736372697074696f6e223a2022426174746c6573206f6e20636861696e60008201527f222c000000000000000000000000000000000000000000000000000000000000602082015250565b6000614a9f6022836138cc565b9150614aaa82614a43565b602282019050919050565b7f22696d616765223a202200000000000000000000000000000000000000000000600082015250565b6000614aeb600a836138cc565b9150614af682614ab5565b600a82019050919050565b7f2200000000000000000000000000000000000000000000000000000000000000600082015250565b6000614b376001836138cc565b9150614b4282614b01565b600182019050919050565b7f7d00000000000000000000000000000000000000000000000000000000000000600082015250565b6000614b836001836138cc565b9150614b8e82614b4d565b600182019050919050565b6000614ba482614988565b9150614baf826149d4565b9150614bbb82856142ee565b9150614bc682614a20565b9150614bd182614a92565b9150614bdc82614ade565b9150614be882846142ee565b9150614bf382614b2a565b9150614bfe82614b76565b91508190509392505050565b7f646174613a6170706c69636174696f6e2f6a736f6e3b6261736536342c000000600082015250565b6000614c40601d836138cc565b9150614c4b82614c0a565b601d82019050919050565b6000614c6182614c33565b9150614c6d82846142ee565b915081905092915050565b7f496e646578206f7574206f6620626f756e647300000000000000000000000000600082015250565b6000614cae601383612ea8565b9150614cb982614c78565b602082019050919050565b60006020820190508181036000830152614cdd81614ca1565b9050919050565b7f506c656173652075736520616e206578697374696e6720746f6b656e20233100600082015250565b6000614d1a601f83612ea8565b9150614d2582614ce4565b602082019050919050565b60006020820190508181036000830152614d4981614d0d565b9050919050565b7f506c656173652075736520616e206578697374696e6720746f6b656e20233200600082015250565b6000614d86601f83612ea8565b9150614d9182614d50565b602082019050919050565b60006020820190508181036000830152614db581614d79565b9050919050565b7f596f75206d757374206f776e20746f6b656e2023310000000000000000000000600082015250565b6000614df2601583612ea8565b9150614dfd82614dbc565b602082019050919050565b60006020820190508181036000830152614e2181614de5565b9050919050565b6000614e3382612f58565b9150614e3e83612f58565b925082821015614e5157614e5061455a565b5b828203905092915050565b6000614e6782612f58565b9150614e7283612f58565b925082614e8257614e816144fa565b5b828204905092915050565b6000614e9882612f58565b9150614ea383612f58565b9250817fffffffffffffffffffffffffffffffffffffffffffffffffffffffffffffffff0483118215151615614edc57614edb61455a565b5b828202905092915050565b7f45524337323155524953746f726167653a2055524920736574206f66206e6f6e60008201527f6578697374656e7420746f6b656e000000000000000000000000000000000000602082015250565b6000614f43602e83612ea8565b9150614f4e82614ee7565b604082019050919050565b60006020820190508181036000830152614f7281614f36565b9050919050565b7f4552433732313a207472616e736665722066726f6d20696e636f72726563742060008201527f6f776e6572000000000000000000000000000000000000000000000000000000602082015250565b6000614fd5602583612ea8565b9150614fe082614f79565b604082019050919050565b6000602082019050818103600083015261500481614fc8565b9050919050565b7f4552433732313a207472616e7366657220746f20746865207a65726f2061646460008201527f7265737300000000000000000000000000000000000000000000000000000000602082015250565b6000615067602483612ea8565b91506150728261500b565b604082019050919050565b600060208201905081810360008301526150968161505a565b9050919050565b7f4552433732313a20617070726f766520746f2063616c6c657200000000000000600082015250565b60006150d3601983612ea8565b91506150de8261509d565b602082019050919050565b60006020820190508181036000830152615102816150c6565b9050919050565b7f4552433732313a207472616e7366657220746f206e6f6e20455243373231526560008201527f63656976657220696d706c656d656e7465720000000000000000000000000000602082015250565b6000615165603283612ea8565b915061517082615109565b604082019050919050565b6000602082019050818103600083015261519481615158565b9050919050565b600081519050919050565b600082825260208201905092915050565b60006151c28261519b565b6151cc81856151a6565b93506151dc818560208601612eb9565b6151e581612eec565b840191505092915050565b60006080820190506152056000830187612fed565b6152126020830186612fed565b61521f60408301856132ff565b818103606083015261523181846151b7565b905095945050505050565b60008151905061524b81612e0e565b92915050565b60006020828403121561526757615266612dd8565b5b60006152758482850161523c565b91505092915050565b7f4552433732313a206d696e7420746f20746865207a65726f2061646472657373600082015250565b60006152b4602083612ea8565b91506152bf8261527e565b602082019050919050565b600060208201905081810360008301526152e3816152a7565b9050919050565b7f4552433732313a20746f6b656e20616c7265616479206d696e74656400000000600082015250565b6000615320601c83612ea8565b915061532b826152ea565b602082019050919050565b6000602082019050818103600083015261534f81615313565b905091905056fe4142434445464748494a4b4c4d4e4f505152535455565758595a6162636465666768696a6b6c6d6e6f707172737475767778797a303132333435363738392b2fa264697066735822122010a9c7cd1445fa05735ef472ad09c64267fb30213200bdd761cafe1d9186874264736f6c634300080a0033",
	"linkReferences": {},
	"deployedLinkReferences": {}
}